:020000040800F2
:10000000200600203D7D0008550600085706000820
:10001000590600085B0600085D06000800000000A5
:100020000000000000000000000000005F06000863
:10003000610600080000000063060008650600086D
:10004000577D0008577D0008577D0008577D000840
:10005000577D0008577D0008577D0008577D000830
:10006000577D0008577D0008577D0008577D000820
:10007000577D0008577D0008577D0008577D000810
:10008000577D0008577D0008577D0008577D000800
:10009000577D0008577D0008577D0008577D0008F0
:1000A000577D0008577D0008577D0008577D0008E0
:1000B000577D0008577D0008577D0008577D0008D0
:1000C000577D0008577D0008577D0008577D0008C0
:1000D000577D000869060008577D0008577D000815
:1000E000577D0008577D0008577D0008577D0008A0
:1000F000577D0008577D0008577D0008577D000890
:10010000000000000000000000000000577D000813
:10011000577D0008577D0008577D0008577D00086F
:10012000577D0008577D0008577D0008577D00085F
:10013000577D0008577D0008000000000000000007
:10014000577D0008577D0008577D0008000000001B
:10015000000000000000000000000000000000009F
:100160000000000000000000577D0008577D0008D7
:10017000577D0008000000000000000000000000A3
:1001800000000000577D0008DFF80CD007F09CFE4F
:1001900000480047F90100082006002030B503465A
:1001A00000200246F94D09E09C5C521C84EA1024B0
:1001B00092B235F8144084EA002080B28A42F3D328
:1001C00030BD03E03521401E491EFDD10028F9D184
:1001D000704700B5024640F2E63303E01846521E6F
:1001E000FFF7EFFF002AF9D100BDE94801780129A6
:1001F000FCD100210170704790B000F04DFA01254C
:10020000022628040095CDE907604FF4E01009901C
:100210000024CDE90154684603F05FFB0F20CDE9CF
:100220000A06A802CDE90C4002210AA80E9403F0A8
:1002300021FED948D74901604FF41651C0E9011495
:10024000C4600C210461C0E90514012007F05CFBC7
:10025000032007F059FB022007F056FB012007F0AE
:100260008BFB032007F07FFBCB487F212038C0E9C0
:100270000141FF21C0E903144461C8498461016060
:1002800004F05CF818B1022007F06DFBFEE7C248ED
:100290000021203805F00FF843F2F227B84227D0AA
:1002A00014258DF8175010208DF81500BA488DF8D8
:1002B00016508DF81460012205A9203804F0B7F912
:1002C0008DF8005021208DF80100B3488DF80240D0
:1002D0008DF808400394012269462038049404F004
:1002E0000DF9AD483A460021203804F0DFFF4EE01A
:1002F0004FF0006191FAA1F0B0FA80F040F0600098
:10030000A74CB5EB501F01D120680BE091FAA1F08A
:10031000B0FA80F040F06000B6EB501F01D1206AC7
:1003200000E0606A91FAA1F1B1FA81F101F01F01D8
:1003300005FA01F1084202D0012007F014FB4FF04A
:10034000806191FAA1F0B0FA80F040F06000B5EB66
:10035000501F01D120680BE091FAA1F0B0FA80F0B3
:1003600040F06000B6EB501F01D1206A00E0606AE7
:1003700091FAA1F1B1FA81F101F01F0105FA01F141
:10038000084202D0032007F0EEFA86480560824852
:1003900006F04EFD0021084607F0FFFA7C4E7E4C29
:1003A000783470886070000A207030696071010ACA
:1003B0002171010CE170000EA070B088E071000A9C
:1003C000A071F0886072000A207270696073010A7F
:1003D0002173010CE172000EA0723089E073000AF3
:1003E000A07370896074000A2074B089E074000AF8
:1003F000A074002007F00CFB0028FAD0664806F035
:1004000001FE654806F014FD61490A230B22823182
:10041000614806F016FE3220FFF7DBFE5C490A2336
:100420001A4678315C4806F00CFE3220FFF7D1FE08
:1004300057490A2313221E31574806F002FE40F2A4
:100440002620FFF7C6FE52490A23092231315248BD
:1004500006F0F7FD40F27260FFF7BBFE4C490A233D
:1004600009223A314C4806F0ECFD40F28A20FFF7B1
:10047000B0FE47490A232A224331474806F0E1FDEE
:100480004FF47A773846FFF7A4FEDFF80C81404D31
:1004900008F16C081835012007F06EFA022007F009
:1004A00062FA002007F0B4FA0028FAD03A4806F0C1
:1004B000A9FD394806F0BCFC37490C226C3136489E
:1004C00006F0D6FEFFF791FE98F800004146552849
:1004D000E1D1002001EB40035A78402A4FEA021292
:1004E00001D9A2F55C722A549A782B5C402A1A44EE
:1004F00001D9373A00E0303A2A54401CC0B20528EE
:10050000E8D96978A8780144E1736074E878E07408
:10051000214814217830FFF741FEF0816075000A10
:100520001B4920750A230B226D311B4806F089FDFB
:10053000012007F02AFA3846FFF74BFE012007F0AA
:1005400024FA15490A2316227831134806F079FD5A
:10055000012007F01AFA3220FFF73BFE012007F0D6
:1005600014FA0B490A230122491C0B4806F069FDC5
:10057000012007F00AFA3846FFF72BFE8BE7044903
:1005800001200870032007F0EEB900000A7F000880
:100590000000002000380140F40000200028004046
:1005A00000100240E004424203490120087007F0B5
:1005B000DAB9002007F0D7B90000002030B5234891
:1005C00085B0416941F400214161416941F4001164
:1005D0004161816941F480418161102000900220D5
:1005E00001900120029003200724CDE90304184D57
:1005F0006946284601F044F820200090694604949A
:10060000284601F03DF801220021252000F0CBF81A
:10061000252000F0E6F805B030BD0C4810B5C168E3
:1006200041F48041C160C16821F48041C160084C3F
:100630001021204601F0D6F82021204601F0D2F802
:10064000BDE81040252000F0D7B80000001002409F
:10065000000800487047FEE7FEE7FEE7FEE7704748
:100660007047704700F038B8014806F0A4BF00009A
:10067000F4000020704710B5044603F089FD4FF4E4
:100680007A71B0FBF1F000F0CFF800222146501E45
:1006900000F089F8002010BD384810B5016841F01D
:1006A00010010160032000F071F80F20FFF7E3FF55
:1006B000FFF7E0FF002010BD7047314810B54FF044
:1006C000FF31016100220261C160C2608162826209
:1006D000FFF7F2FF002010BD2A480168491C0160A5
:1006E000704728480068704731B5FFF7FAFF0446A5
:1006F000FFF7F7FF0099001B8842F9D338BD4FF090
:10070000E020016921F00201016170474FF0E02013
:10071000016941F00201016170474FF0012070470B
:1007200019480068000C704717480068C0F30B00B8
:1007300070471548416841F0010141607047124817
:10074000416821F00101416070470F48416841F064
:100750000201416070470C48416821F0020141608C
:1007600070470948416841F00401416070470648FC
:10077000416821F004014160704700000020024000
:100780000010024090000020002004E0734900F0B7
:10079000070208684FF6FF03184040EA0220704A3B
:1007A000104308607047F0B46C4B1B680C46C3F3F1
:1007B0000223C3F10705042D00D90425191D0729BB
:1007C00001D2002300E0DB1E012606FA05F1491ED6
:1007D000214099409E40761E16403143F0BC00F007
:1007E000ACB800F01F02012191404009800000F1E7
:1007F000E020C0F80011704700F01F020121914075
:100800004009800000F1E020C0F880117047BFF37C
:100810004F8F52480168524A01F4E061121D1143A2
:100820000160BFF34F8FFEE710B5401EB0F1807F2F
:1008300001D3012010BD4FF0E02460610F2160174B
:1008400000F07BF80020A06107202061002010BD8F
:1008500042480068C0F30220704770B5002806DAED
:1008600000F00F0000F1E02090F8140D03E000F11B
:10087000E02090F80004040901F00700C0F107052A
:10088000042D00D90425011D072901D2002000E014
:10089000C01E012124FA00F601FA05F56D1E2E4056
:1008A0008140491E21401660196070BD00F01F0292
:1008B000012191404009800000F1E020C0F80012C1
:1008C00070474109890001F1E021D1F8001200F0E0
:1008D0001F0201209040014201D0012070470020FA
:1008E000704700F01F02012191404009800000F193
:1008F000E020C0F8801270474109890001F1E02131
:10090000D1F8001300F01F0201209040014201D0F5
:1009100001207047002070474FF0E021042808694B
:1009200003D020F004000861704740F00400FAE7AB
:10093000704710B5FFF7FCFF10BD0907090E00282E
:1009400006DA00F00F0000F1E02080F8141D704777
:1009500000F1E02080F80014704700000CED00E08A
:100960000000FA0530B5E8B1022180F821100368D3
:100970001A6843F6F0718A43D0E901142143D0E9A3
:1009800003452C4321434469214384692143C469BD
:1009900021431143196000214163012180F8211096
:1009A000002030BD012030BD2DE9F04FF0B390F8AC
:1009B000211002293ED001680A6822F001020A6073
:1009C000026800211160026851600268916002684B
:1009D000D160FA4AF94BF94CF84DF84EF74FDFF871
:1009E000DC83DFF8DC93DFF8D8A3DFF8D4B3016849
:1009F000783A643B503C3C3D283E143FDFF8C0C38E
:100A00004FF4005E09F114090AF1280A0BF13C0BBE
:100A100041452CD9914212D0994214D0A14216D00E
:100A2000A94219D0B14219D0B94200E002E004D184
:100A3000910415E00120BDE8F08F614501D102214C
:100A40000EE0494501D120210AE0514502D14FF481
:100A5000007105E0594501D1714601E04FF40031C4
:100A6000DFF85C83A8F10408C8F800102EE091427A
:100A700015D0994217D0A14219D0A9421CD0B14239
:100A80001CD0B94202D14FF4001119E0DFF82C83D9
:100A9000414502D14FF0007112E0614501D10221C0
:100AA0000EE0494501D120210AE0514502D14FF421
:100AB000007105E0594501D1714601E04FF4003164
:100AC000DFF8F882A8F18008C8F80410DFF8EC829B
:100AD00001684FF4006E414528D991420ED09942E9
:100AE00010D0A14212D0A94214D0B14215D0B942BF
:100AF00002D14FF4000112E0614501D108210EE05E
:100B0000494501D180210AE0514501D1714606E0F5
:100B1000594502D14FF4004101E04FF40021DFF8C4
:100B2000A082A8F10408C8F800102EE0914215D068
:100B3000994217D0A14219D0A9421BD0B1421CD072
:100B4000B94202D14FF4000119E0DFF8708241454B
:100B500002D14FF0006112E0614501D108210EE0A1
:100B6000494501D180210AE0514501D1714606E095
:100B7000594502D14FF4004101E04FF40021DFF864
:100B80003C82A8F18008C8F80410DFF830820168C0
:100B90004FF4806E414525D991420ED0994210D034
:100BA000A14212D0A94214D0B14215D0B94202D10B
:100BB0004FF4800112E0614501D104210EE0494566
:100BC00001D140210AE0514501D1714606E0594565
:100BD00002D14FF4804101E04FF48021784A121F86
:100BE000116029E0914213D0994215D0A14217D04B
:100BF000A94219D0B1421AD0B94202D14FF48001B2
:100C000017E0414502D14FF0806112E0614501D10A
:100C100004210EE0494501D140210AE0514501D1AE
:100C2000714606E0594502D14FF4804101E04FF48E
:100C30008021624A803A51600021416380F821108E
:100C400080F820100846F6E670B5044690F82000BB
:100C5000012814D0012084F82000022084F821000B
:100C60002068056825F001050560204600F0F5FCC8
:100C70002068016841F001010160002070BD022080
:100C800070BD70B5044690F82000012823D00120E3
:100C900084F82000022084F821002068056825F0EF
:100CA00001050560204600F0D8FC2068016841F08D
:100CB000020101602068016841F0040101602068C0
:100CC000016841F0080101602068016841F00101FC
:100CD0000160002070BD022070BD2DE9F041044686
:100CE0000068016821F001010160FFF7FAFC054688
:100CF00000264FF47A770FE0FFF7F3FC401BB84271
:100D00000AD954F8340F40F0200044F814090320A5
:100D100060702670BDE8F08120680068C007EBD1E4
:100D2000012084F8210084F820600020F2E72DE9FA
:100D3000F74F82B0214D214E0446DFF880B01F4F9F
:100D4000DFF87880DFF87490643D503E03990068C6
:100D5000ABF1780B3C3FA8F12808A9F1140971B157
:100D6000584548D0A8424CD0B0424FD0B84254D099
:100D7000404555D0484535D14FF4800052E05845A4
:100D800014D0A84218D0B0421FD0B84224D0404559
:100D900025D0484502D14FF4001043E0074988426E
:100DA00001D180043EE00649884201D1022039E0A9
:100DB00003491431884205D1202033E080000240ED
:100DC00008040240FE49884202D14FF4007029E035
:100DD000FB491431884202D14FF4005022E04FF415
:100DE00000301FE0F749884201D1C0041AE0F449FD
:100DF0002839884201D1042014E0F149143988428D
:100E000001D140200EE0EE49884202D14FF48060CB
:100E100008E0EB491431884202D14FF4804001E0F0
:100E20004FF480208246FFF75CFC0090CAE08842C5
:100E300025D9E34930390A68584510D0A84210D066
:100E4000B04213D0B84214D0404515D0484502D125
:100E50004FF4000126E0DA492839884235D10821CB
:100E600020E080211EE0D649884233D14FF4006152
:100E700018E04FF4004115E04FF4002112E0D14A90
:100E8000803A12685845EAD0A842EAD0B042EDD084
:100E9000B842EED04045EFD04845D9D08842DAD1AB
:100EA0004FF000610A4275D0C649884236D958458C
:100EB00019D0A8421DD0B04220D0B84225D040451C
:100EC00026D048450BD1080424E0BD491439884296
:100ED000C9D1C6E7BA4914318842CDD1C9E7B8496A
:100EE0002839884201D1082014E0B54914398842D4
:100EF00001D180200EE0B249884202D14FF4006057
:100F000008E0AF491431884202D14FF4004001E0BB
:100F10004FF40020AA492C39086031E0584515D01B
:100F2000A84219D0B0421CD0B84221D0404522D0AE
:100F3000484502D14FF400001FE0A249884201D188
:100F400000051AE09E492839884201D1082014E0A2
:100F50009B491439884201D180200EE0984988428B
:100F600002D14FF4006008E095491431884202D163
:100F70004FF4004001E04FF400209249803948606E
:100F8000042084F82100002084F82000012005B00E
:100F900051E5FFE70498401C14D0049830B1FFF7E6
:100FA000A0FB0099411A049881420BD954F8340FE0
:100FB00040F0200044F814090320607000202070E5
:100FC0000320E4E77F492068884202D97C4A303A0E
:100FD00001E07C4A803A126812EA0A0F3FF427AF18
:100FE0000399002977490FD0884271D958457AD0A2
:100FF000A8427ED0B0426ED0B8426DD040456CD091
:1010000048456CD1C80385E088422DD9584510D099
:10101000A84214D0B04217D0B8421CD040451DD0D1
:10102000484502D14FF400101AE06549283988423A
:1010300001D1022014E062491439884201D12020F4
:101040000EE05F49884202D14FF4007008E05C492D
:101050001431884202D14FF4005001E04FF40030C7
:1010600057492C39086031E0584515D0A84219D0AD
:10107000B0421CD0B84221D0404522D0484502D1D0
:101080004FF400101FE0884202D14FF000701AE0C8
:101090004B492839884201D1022014E048491439CB
:1010A000884201D120200EE04549884202D14FF408
:1010B000007008E042491431884202D14FF40050D8
:1010C00001E04FF400303F4980394860012058E08A
:1010D00024E008E00DE011E017E019E0FFE73849EF
:1010E0002839884201D1042014E035491439884256
:1010F00001D140200EE03249884202D14FF4806095
:1011000008E02F491431884202D14FF4804001E0B9
:101110004FF480202A492C39086031E0584515D019
:10112000A84219D0B0421CD0B84221D0404522D0AC
:10113000484502D14FF480001FE0884202D14FF0B1
:1011400080601AE01E492839884201D1042014E049
:101150001B491439884201D140200EE018498842C9
:1011600002D14FF4806008E015491431884202D161
:101170004FF4804001E04FF48020124980394860EC
:10118000112084F82100002084F82000FFE62DE9DA
:10119000F05F0C4A0B4D0B4E0A4FDFF828900446C7
:1011A000D114783D643E00684FF4000E4FF4004CBB
:1011B0004FF40028503FA9F13C09DFF808A003E0F4
:1011C0003004024080000240DFF8E4B3AAF1280AAC
:1011D000904221D9F74A1368A8420FD0B0420FD0ED
:1011E000B84213D0484513D0504513D0584501D1CB
:1011F000724625E0EF4A083290423ED108221FE0B5
:1012000080221DE0EB4A303290423BD10A4617E083
:10121000624615E0424613E0E54A6C3A1368A8427C
:10122000ECD0B042ECD0B842F0D04845F0D05045B8
:10123000F0D05845DCD0DE4A14329042DAD10205B3
:1012400013427AD00268D243120776D4026822F0A1
:1012500008020260D64A20681432904232D9A8426D
:1012600019D0B0421DD0B84228D0484523D05045AF
:1012700023D058450BD1714620E0CE4A1C32904213
:10128000C0D1BDE7CB4A44329042C3D1C0E7C94A7E
:101290000832904201D1082110E0C64A1C32904227
:1012A00001D180210AE0C34A3032904206D0C149C0
:1012B0004431884201D1614600E04146BD48001DED
:1012C00001602CE0A84214D0B04218D0B84223D01C
:1012D00048451ED050451ED0584501D171461BE0EF
:1012E000904202D14FF0006116E0B24A08329042BB
:1012F00001D1082110E0AF4A1C32904201D1802177
:101300000AE0AC4A3032904206D0AA4944318842C1
:1013100001D1614600E04146A5486C384160606BF0
:1013200040F001006063042084F82100002084F86C
:101330002000216B09B1204688479D4A206814325D
:1013400011154FF4800E4FF4804C4FF480289042DA
:1013500021D9984A1368A8420FD0B0420FD0B842A2
:1013600013D0484513D0504513D0584501D172468B
:1013700025E0904A0832904241D104221FE04022E9
:101380001DE08C4A303290423ED10A4617E0624658
:1013900015E0424613E0864A6C3A1368A842ECD046
:1013A000B042ECD0B842F0D04845F0D05045F0D033
:1013B0005845DCD07E4A14329042DAD1C20413423E
:1013C00076D00268D243520772D40268920603D4E0
:1013D000026822F004020260754A206814329042CA
:1013E00032D9A84219D0B0421DD0B84228D04845C1
:1013F00023D0504523D058450BD1714620E06D4A8B
:101400001C329042BDD1BAE76A4A44329042C0D100
:10141000BDE7684A0832904201D1042110E0654AD4
:101420001C32904201D140210AE0624A303290429F
:1014300006D060494431884201D1614600E041460E
:101440005C48001D01602CE0A84214D0B04218D0C6
:10145000B84223D048451ED050451ED0584501D132
:1014600071461BE0904202D14FF0806116E0514A74
:101470000832904201D1042110E04E4A1C329042C1
:1014800001D140210AE04B4A3032904206D049490E
:101490004431884201D1614600E0414644486C38FD
:1014A0004160112084F82100E16A09B12046884793
:1014B0003F4A2068143251154FF4005C4FF4003E4F
:1014C000904228D93B4B1B68A84212D0B04213D09F
:1014D000B8421AD048451AD050451AD0584502D1C2
:1014E0004FF400182AE0DFF8CC8008F108084045E6
:1014F00044D14FF0020821E04FF020081EE0DFF851
:10150000B48008F1300840453FD1884616E0E046F7
:1015100014E0F04612E0264B6C3B1B68A842E8D072
:10152000B042E9D0B842F0D04845F0D05045F0D0B4
:101530005845D5D09042D6D14FF0007813EA080F25
:1015400071D00368DB439B076DD403689B0603D40B
:10155000036823F002030360206890423AD9A8424E
:101560001ED0B04222D0B84230D048452BD0504592
:101570002BD0584510D14FF4001127E0DFF834800C
:1015800008F11C084045BAD1B6E7DFF8288008F119
:1015900044084045BDD1BAE7064A0832904201D11D
:1015A000022113E0034A1C32904205D120210DE0B4
:1015B0006C000240000402402F4A904206D02E499F
:1015C0001431884201D1614600E071462A482C3826
:1015D00001602CE0A84215D0B04219D0B84224D006
:1015E00048451ED050451FD0584502D14FF4001138
:1015F0001BE0904202D14FF0007116E01E4A283ADB
:10160000904201D1022110E01B4A143A904201D1CC
:1016100020210AE0184A904207D017491431884225
:1016200002D1614601E011E0714614484160606BEF
:101630006063012084F82100002084F82000A16A62
:10164000002903D02046BDE8F05F0847BDE8F09FC1
:1016500090F821007047406B704710B504686360D4
:101660004368102B036803D099600068C26010BD06
:101670009A600068C16010BD300402400000024062
:101680002DE9F04FDFF848B200224FF001084FF08B
:10169000030A4FF00F090BF1040E00BF0B6808FAA4
:1016A00002F42340A3426ED14D68022D01D0122DC9
:1016B0000ED1D50800EB850CDCF820505607F70E4C
:1016C00009FA07F6B5430E69BE402E43CCF82060F8
:1016D000066855000F790AFA05FC07F0030726EAA9
:1016E0000C06AF40374307604E68012E05D0022E2E
:1016F00003D0112E01D0122E0ED18668CF6826EAB3
:101700000C06AF40374387604668A6430C79C4F3A4
:101710000014944034434460C6688C6826EA0C0682
:10172000AC403443C4604C68E40055D5694CA569AD
:1017300045F00105A561684C22F003052E19B46837
:1017400095072F0F09FA07F5AC43B0F1904F04D07D
:10175000624DA84203D1012517E0002515E0604D38
:10176000A84201D1022510E05E4DA84201D1032517
:101770000BE05D4DA84201D1042506E05B4DA84277
:1017800002D1052501E027E00625BD402543B560CF
:10179000DBF800405D464E689C43F60300D51C43D1
:1017A0002C60DEF8004075464E689C43B60300D5B9
:1017B0001C432C60464D08352C684E689C43F6024D
:1017C00000D51C432C60424D0C352C684E689C4360
:1017D000B60200D51C432C60521C102AFFF45EAFE9
:1017E000BDE8F08F2DE9F04700224FF0010900BF5E
:1017F00009FA02F401EA0403A34239D1066857004A
:101800000325BD40AE430660D60800EB8606D6F839
:1018100020C057074FEAD7684FF00F0A0AFA08F7B7
:101820002CEA070CC6F820C08668AE43866046687E
:10183000A6434660C468AC43C4609407250F0AFA07
:1018400005F4254D22F003063544AE68A643AE608C
:101850001F4C25689D432560241D25689D432560F8
:10186000241D25689D432560241D25689D43256012
:10187000521C102ABCD3BDE8F0870069084000D094
:10188000012070470AB10183704741837047426964
:101890004A404261704708B541F480320092C2610B
:1018A000C1610099C161C1690091C069C00301D5DE
:1018B000002008BD012008BD7047054910B514314E
:1018C0000A68024202D00860FFF7F6FF10BD000070
:1018D00000040140001002400000014000040048E4
:1018E00000080048000C00480010004800140048A0
:1018F000704710B5040003D094F8350010B104E02F
:10190000012010BD2046FFF7F3FF022084F83500C8
:101910002068016821F0010101606068216820F001
:10192000706008612068816821F400418160A068CE
:1019300030B1E168012907D040F404402168886093
:10194000E068022803D006E040F40040F6E7216892
:101950004FF40060486020684168F94A11434160D3
:10196000D4E904010843A16940EA01202168C86064
:10197000D4E907010843216808602068016841F044
:1019800001010160002084F83600012084F8350050
:10199000002010BD704710B5040012D0022084F85A
:1019A00035002068016821F0010101602046FFF741
:1019B000F1FF002084F8360084F8350084F8340004
:1019C00010BD012010BD2DE9F0410D460446FEF783
:1019D00088FE804620688169C943C9063DD494F8D1
:1019E0003510122907D094F83510522903D094F8F5
:1019F0003510622906D14168890103D4416841F458
:101A0000804141600026012720688069C04380062C
:101A10000FD5681CF8D02DB1FEF763FEA0EB0800CF
:101A2000A842F1D984F8357084F834600320BDE809
:101A3000F08121681020C86121682020C8612068D9
:101A40004168C04A11404160042084F8360084F89F
:101A5000357084F834600120E9E70020E7E770B5CD
:101A60000D460446FEF73DFE064618E02946204690
:101A7000FFF7A9FF08B1012070BD25B1FEF731FEC7
:101A8000801BA8420BD914F8360F40F0200004F850
:101A900002090120607000202070032070BD2068C2
:101AA0008069C0438006E1D4002070BD2DE9F04775
:101AB0001C4690460E460546FEF713FE07465FEAB3
:101AC00008004FF000094FF0010808D01CE0601C2E
:101AD00005D094B1FEF705FEC01BA0420DD82868C2
:101AE000806936EA0000F2D113E0601C0CD024B10A
:101AF000FEF7F7FDC01BA04206D985F8358085F8B2
:101B000034900320BDE8F0872868806936EA000039
:101B1000EBD00020F6E770B50D460446FEF7E1FD78
:101B200006461AE029462046FFF74DFF08B101207E
:101B300070BD681C11D025B1FEF7D3FD801BA842F3
:101B40000BD914F8360F40F0200004F802090120E8
:101B5000607000202070032070BD20688069C04341
:101B60008007DFD4002070BD2DE9FF4F044690F8B8
:101B7000350081B01D46174601286BD1002F67D074
:101B8000002D65D020688069C043000462D594F8B8
:101B9000340001285ED04FF0010984F834901220FF
:101BA00084F835004FF0000884F836804FF4005078
:101BB0004FF0807A4FF0007BFF2D009040D95346C4
:101BC000FF222046029901F0D4FCFF2620460E9900
:101BD000FFF7A1FF28B100BF94F83600042837D0E2
:101BE00028E0216817F8010B88626D1EADB2761EE1
:101BF00017D0002DEAD120460E99FFF730FF0028BC
:101C0000EAD121682020C861206841684D4A11400E
:101C1000416084F8359084F83480002005B0BDE838
:101C2000F08F002DE7D00022802120460E9BFFF789
:101C30003DFF08B10320F1E7FF2DCDF80080BED8AD
:101C4000EAB25B462046029901F093FC2E46BDE7BE
:101C50000120E3E70220E1E72DE9FF4F054690F878
:101C6000350081B01C46174601286ED1F7B3ECB39E
:101C700028688069C043000467D595F834000128BE
:101C800063D04FF0010985F83490222085F83500A3
:101C90004FF0000885F836804FF410504FF0807AEE
:101CA0004FF0007BFF2C009032D95346FF2228468C
:101CB000029901F05EFCFF260022042128460E9BBB
:101CC000FFF7F4FEF0B92868406A641E07F8010BBC
:101CD000A4B2761E0DD0002CEED119212846FFF7B4
:101CE000BEFEF8B195F83600042800E018E017D0E1
:101CF00008E0002CF1D00022802128460E9BFFF73F
:101D0000D5FE08B1032089E7FF2CCDF80080CCD8A0
:101D1000E2B25B462846029901F02BFC2646CBE74F
:101D200001207BE729682020C86128684168054AAE
:101D30001140416085F8359085F8348000206DE7CA
:101D40000080000200E800FEFFE7022066E72DE9C0
:101D5000F047044690F8350015460E469A4601288D
:101D60007FD1EEB3E5B394F83400012879D04FF079
:101D7000010884F83480422084F83500002784F874
:101D800036702068416821F4004141603A460821DC
:101D90002046FFF78BFE28B12068416841F40041DE
:101DA000416043E021684FF00809C1F81C90E068E9
:101DB00002280AD15346002208212046FFF776FE6A
:101DC0000028E9D12168C1F81C90534600224FF445
:101DD00080312046FFF76AFE0028DDD1514600E041
:101DE0000CE02046FFF797FE50B12068416841F4AF
:101DF0000041416094F83600042817D1012081E6A3
:101E0000216816F8010B88626D1E2D042D0CE5D19A
:101E100019212046FFF723FE60B12068416841F494
:101E20000041416094F83600042801D0032069E69F
:101E300084F8367021682020C8618102534601224F
:101E40002046FFF733FE0028A6D12068416841F400
:101E50000041416084F8358084F83470002051E6F8
:101E6000FFE702204EE62DE9F047044690F83500E2
:101E700015460E46994601286AD1CEB3C5B394F8EB
:101E80003400012864D0012784F83470422084F89B
:101E900035004FF0000884F836802068416821F44E
:101EA00000414160424608212046FFF7FFFD28B16E
:101EB0002068416841F4004141602FE0216808201A
:101EC000C86141034B4601222046FFF7EFFD002881
:101ED000EED14946204601F05BFB0028206808D07F
:101EE000416841F40041416094F83600202815D043
:101EF00016E0406A6D1E2D0406F8010B2D0CE8D18A
:101F000019212046FFF7ABFD60B12068416841F41C
:101F10000041416094F83600042801D00320F1E527
:101F20000120EFE521682020C86181024B46012293
:101F30002046FFF7BBFD0028BAD12068416841F474
:101F40000041416084F8357084F834800020D9E580
:101F50000220D7E538B5044690F8350001283BD17A
:101F6000DAB1D3B120688069C043000434D594F855
:101F70003400012830D0012084F83400122084F885
:101F80003500002584F83650626263854FF40050B6
:101F9000FF2B04D9FF22228504E0012038BD2385D0
:101FA000FF2B08D1228D638D9A4204D2FF224FF07D
:101FB0008073009004E0009094F828204FF00073A4
:101FC000204601F0D6FA84F834502068016841F0C8
:101FD000F2010160002038BD022038BD38B504464A
:101FE00090F8350001283BD1DAB1D3B1206880697F
:101FF000C043000434D594F83400012830D00120C7
:1020000084F83400222084F83500002584F8365006
:10201000626263854FF41050FF2B04D9FF222285A2
:1020200004E0012038BD2385FF2B08D1228D638D6C
:102030009A4204D2FF224FF08073009004E0009097
:1020400094F828204FF00073204601F092FA84F8AB
:1020500034502068016841F0F4010160002038BD6F
:10206000022038BD30B590F83530012B22D1F9B1BE
:10207000F2B190F83430012B1CD0012380F83430B9
:10208000322380F83530002380F8363050F8184B72
:10209000656825F400456560C1600282428203776D
:1020A00050F8180C016841F0FA010160184630BD83
:1020B000012030BD022030BD30B590F83530012B05
:1020C00022D1F9B1F2B190F83430012B1CD00123A8
:1020D00080F83430422380F83530002380F83630E1
:1020E00050F8184B656825F400456560C1600282B0
:1020F0004282037750F8180C016841F0FC0101603E
:10210000184630BD012030BD022030BD704710B5EB
:10211000406A01684A6842F400424A6000214185F1
:10212000012180F8351090F8361041F0100180F848
:102130003610FFF7EBFF10BD70472DE9F843446AF6
:102140002026FA4F208D00254FF00108FF2870D17E
:10215000618D88426DD21923002280212046FFF72D
:10216000A5FC28B194F8360040F0200084F8360031
:102170002068016821F48041016094F83600A8BB12
:1021800012E000BF40F0040002E000BF40F0200079
:1021900084F836002068C661206841683940416093
:1021A000658584F8358064E0208D616A0144616250
:1021B000628D101A6085608DFF2801D9FF2000E034
:1021C000608D208522685068238DC0F3090928326C
:1021D000E06AFEF756FD208DFF2808D1618D884208
:1021E00005D2FF224FF08073009504E00CE0C2B2EC
:1021F0004FF0007300954946204601F0BAF91921C5
:102200002046FFF788FC60B119212046FFF727FC24
:102210000028BFD094F83600042894F83600B5D1D1
:10222000B0E72068016841F480410160BDE8F883AF
:10223000FFE719212046FFF712FC48B194F8360059
:10224000042894F8360018D040F0200084F83600B6
:102250002068C66120684168394041602068016893
:1022600021F480410160658584F8358094F836005A
:1022700030B12046FFF74AFFD8E740F00400E5E719
:102280002046FFF759FFD1E7F8B5044690F835002E
:1022900017460E46012858D19FB393B32068806932
:1022A000C043000451D594F8340001284DD00120DA
:1022B00084F83400122084F83500002584F8365064
:1022C00067626385FF2B02D9FF20208500E023850C
:1022D000E16A97488862E16A964808632268238D1C
:1022E00039462832E06AFEF7CCFC208D4FF40051CD
:1022F000FF2807D1628D904204D2FF22CB020091C9
:1023000004E018E0C2B24FF000730091314620465D
:1023100001F02FF919212046FFF7FDFB0028206866
:102320000BD0416841F40041416094F83600042824
:1023300001D00320F8BD0120F8BD016841F48041BF
:10234000016084F834500020F8BD0220F8BD7047C9
:102350002DE9F843446A2026744F208D00254FF064
:102360000108FF2879D1618D884276D21923002295
:1023700080212046FFF79AFB28B194F8360040F000
:10238000200084F836002068016821F400410160D3
:1023900094F83600A0BB11E040F0040002E000BF5A
:1023A00040F0200084F836002068C661206841684B
:1023B00039404160658584F835806EE0208D616A22
:1023C0000A186262618D081A6085608DFF2801D944
:1023D000FF2000E0608D208521684868238DC0F3D0
:1023E00009092431206BFEF74CFC208DFF2808D111
:1023F000618D884205D2FF224FF08073009504E082
:1024000017E0C2B24FF0007300954946204601F034
:10241000B0F81923002204212046FFF747FB28B11A
:1024200094F8360040F0200084F8360094F8360026
:1024300068B119212046FFF712FB0028B4D094F8A8
:102440003600042894F83600AAD1A5E705E02068F4
:10245000016841F400410160E8E619212046FFF7D8
:10246000FEFA48B194F83600042894F8360018D0E3
:1024700040F0200084F836002068C661206841687A
:10248000394041602068016821F4004101606585A0
:1024900084F8358094F8360030B12046FFF736FED8
:1024A000C4E640F00400E5E72046FFF750FFBDE634
:1024B000F8B5044690F835000E46012858D1CAB147
:1024C000C3B120688069C043000451D594F834003A
:1024D00001284DD0012084F83400222084F83500F2
:1024E000002584F8365062626385FF2B04D9FF20F3
:1024F000208502E00120F8BD2385216B0E4888620B
:10250000216B0C4808632168238D2431206BFEF772
:10251000B8FB208D4FF41051FF280FD1628D9042EF
:102520000CD2FF224FF0807300910BE000E800FE18
:102530003B2100080F21000851230008C2B24FF0D0
:10254000007300913146204601F013F81923002250
:1025500004212046FFF7AAFA08B10320F8BD20683D
:10256000016841F40041016084F834500020F8BD56
:102570000220F8BD704770B5446A19212046FFF764
:102580006EFA002548B194F83600042826D094F855
:10259000360040F0200084F8360021682020C86111
:1025A0008102192301222046FFF780FA28B194F80E
:1025B000360040F0200084F836002068016821F4DD
:1025C000804101606585012084F8350094F836006B
:1025D0000028204605D0FFF799FD70BD84F83650DD
:1025E000DBE7FFF7C7FF70BD2DE9F041044690F827
:1025F0003500012856D159B352B394F8340001285C
:1026000050D0012084F83400322084F835000025B1
:1026100084F83650616262852285E26AF9489062E8
:10262000E26AF94810632268238D2832E06AFEF7D7
:1026300028FB2068416821F40041416042F2107794
:102640003B46002208212046FFF730FAD0B902E0CD
:102650000120BDE8F08120680826C661E0680228F4
:1026600008D13B46002208212046FFF71FFA48B94F
:102670002068C661192300224FF480312046FFF7FD
:1026800015FA30B12068416841F4004141600320EF
:10269000DFE72068016841F48041016084F834502C
:1026A0000020D6E70220D4E7704710B5446A19210C
:1026B0002046FFF7D4F948B194F83600042894F87E
:1026C00036002AD040F0200084F83600216820200F
:1026D000C8618102192301222046FFF7E7F928B1DA
:1026E00094F8360040F0200084F836002068016835
:1026F00021F4004101602068416841F400414160DB
:1027000000206085012084F8350094F83600002808
:10271000204605D0FFF7FAFC10BD40F00400D3E7D7
:10272000FFF7C2FF10BD70B5044690F835000128D0
:1027300049D161B35AB394F83400012843D0012041
:1027400084F83400422084F83500002584F836509F
:10275000616222856285236BAC489862236BAA482C
:102760001863134626680A4606F12401206BFEF71B
:1027700088FA2068416821F40041416042F21073F8
:10278000002208212046FFF791F960B901E00120FD
:1027900070BD21680820C861410319230122204629
:1027A000FFF784F930B12068416841F4004141608D
:1027B000032070BD2068016841F40041016084F885
:1027C0003450002070BD022070BDF8B50446164696
:1027D0004FF400501D46DAB2C3020090069F204617
:1027E00000F0C7FE39462046FFF795F928B100BF33
:1027F00094F83600042819D016E02846F5B20128CE
:1028000008D02168300A886239462046FFF783F9EC
:102810000028EDD1206885623B46002280212046B9
:10282000FFF744F9002800D00320F8BD0120F8BDCF
:102830002DE9FF4F81B00446DDE90E7590F83500B3
:10284000DDF840A0012876D1002F72D0002D70D085
:1028500020688069C04300046DD594F834000128D5
:1028600069D04FF0010984F83490522084F8350083
:102870004FF0000884F83680CDF800A02046029979
:10288000FFF7A3FF30B194F8360084F834800428B1
:102890004FD045E04FF0807B44E05B46FF2220466E
:1028A000029900F066FEFF2607E0EAB24FF00073DF
:1028B0002046029900F05DFE2E4651462046FFF765
:1028C0002AF920B194F83600042832D028E0216893
:1028D00017F8010B88626D1EADB2761E17D0002D61
:1028E000EBD119212046FFF7BAF80028EAD1216878
:1028F0002020C86120684168454A1140416084F841
:10290000359084F83480002005B0BDE8F08F002DAC
:10291000E7D05346002280212046FFF7C7F808B1D0
:102920000320F1E7FF2DCDF80080BED9B5E702E026
:10293000FFE70120E8E70220E6E7F8B5044616467F
:102940004FF400501D46DAB20090069F0023204647
:1029500000F00FFE39462046FFF7DDF828B100BF32
:1029600094F83600042819D016E02846F5B201285C
:1029700008D02168300A886239462046FFF7CBF834
:102980000028EDD1206885623B4600224021204688
:10299000FFF78CF8002800D00320F8BD0120F8BD17
:1029A0002DE9FF4F81B00446DDE90E7590F8350042
:1029B000DDF840A001286ED1002F6ED0002D6CD024
:1029C00020688069C043000477D594F8340001285A
:1029D00073D04FF0010984F83490622084F83500F8
:1029E0004FF0000884F83680CDF800A02046029908
:1029F000FFF7A3FF70B194F8360084F83480042800
:102A00004BD039E0772500080F210008AB260008DD
:102A100000E800FE4FF410504FF0807BFF2D009037
:102A200030D95B46FF222046029900F0A2FDFF2626
:102A30005346002204212046FFF738F8E0B9206809
:102A4000406A6D1E07F8010BADB2761E0BD0002D4B
:102A5000EED119212046FFF702F800B394F83600B2
:102A600004281AD008E0002DF3D05346002280211C
:102A70002046FFF71BF808B1032045E7FF2DCDF8EE
:102A80000080CED8EAB24FF000732046029900F0E1
:102A900070FD2E46CCE710E0FFE7012034E7216807
:102AA0002020C86120684168FD4A1140416084F8D7
:102AB000359084F83480002026E7022024E7F8B51A
:102AC00004460E46DDE9061094F83550012D46D136
:102AD00039B330B32568AD69ED432D043FD594F883
:102AE0003450012D3BD0012584F83450522584F810
:102AF0003550002584F8365061626085FF2800D982
:102B0000FF2020851920009031462046FFF75DFE0A
:102B100048B194F8360084F83450042801D00320DA
:102B2000F8BD0120F8BD208DFF2807D1618D8842B6
:102B300004D2FF224FF08073009503E0C2B24FF041
:102B4000007300953146204600F013FD84F83450A0
:102B50002068016841F0F20101600020F8BD022008
:102B6000F8BDF8B504460E46DDE9061094F8355078
:102B7000012D46D129B320B32568AD69ED432D045D
:102B80003FD594F83450012D3BD0012584F83450C2
:102B9000622584F8355061626085FF2800D9FF20E6
:102BA00020851920009031462046FFF7C6FE0025FB
:102BB00048B194F8360084F83450042801D003203A
:102BC000F8BD0120F8BD208D4FF41051FF2807D12A
:102BD000628D904204D2FF224FF08073009103E097
:102BE000C2B24FF0007300913146204600F0C1FCA4
:102BF00084F834502068016841F0F401016000203D
:102C0000F8BD0220F8BD70472DE9F843446A20263C
:102C1000A34F208D00254FF00108FF286ED1618D54
:102C200088426BD21923002280212046FEF73EFF06
:102C300028B194F8360040F0200084F8360020686F
:102C4000016821F48041016094F83600A0BB11E0D6
:102C500040F0040002E000BF40F0200084F836009D
:102C60002068C6612068416839404160658584F804
:102C7000358064E0208D616A01446162628D101AC2
:102C80006085608DFF2801D9FF2000E0608D2085E0
:102C900022685068238DC0F309092832E06AFDF7E5
:102CA000F0FF208DFF2808D1618D884205D2FF22D8
:102CB0004FF08073009504E00CE0C2B24FF0007357
:102CC00000954946204600F054FC19212046FEF7A5
:102CD00022FF60B119212046FEF7C1FE0028BFD0B7
:102CE00094F83600042894F83600B5D1B0E720688F
:102CF000016841F480410160BDE8F8831921204654
:102D0000FEF7ADFE50B194F83600042894F8360072
:102D100019D040F0200000BF84F836002068C6615A
:102D200020684168394041602068016821F4804191
:102D30000160658584F8358094F8360030B120460E
:102D4000FFF7E4F9D8E740F00400E5E72046FFF795
:102D50005AFFD1E72DE9F843044688461746DDE9D6
:102D6000081094F835201E46012A60D1002953D05E
:102D7000002851D022689269D243120457D594F8A2
:102D80003420012A53D0012284F83420522284F8BE
:102D90003520002584F8365061626085FF2800D90F
:102DA000FF202085E26A3F489062E26A3E48106355
:102DB0002268238D2832E06AFDF763FF1920009016
:102DC00033463A4641462046FFF7FFFC30B194F8BF
:102DD000360084F8345004281ED01BE0208DFF28D4
:102DE00007D1618D884204D2FF224FF08073009595
:102DF00003E0C2B24FF0007300954146204600F058
:102E0000B8FB19212046FEF786FE38B194F836004B
:102E1000042801D003206FE701206DE720680168D6
:102E200041F48041016084F83450002064E70220BE
:102E300062E770472DE9F843446A2026184F208D39
:102E400000254FF00108FF287FD1618D88427CD298
:102E50001923002280212046FEF728FE28B194F88D
:102E6000360040F0200084F836002068016821F424
:102E70000041016094F83600D0BB17E040F0040038
:102E800002E000BF40F0200084F836002068C661F0
:102E90002068416839404160658584F8358074E078
:102EA00000E800FE092C00080F210008208D616A4F
:102EB0000A186262618D081A6085608DFF2801D949
:102EC000FF2000E0608D208521684868238DC0F3D5
:102ED00009092431206BFDF7D4FE208DFF2808D18D
:102EE000618D884205D2FF224FF08073009504E087
:102EF00017E0C2B24FF0007300954946204600F03B
:102F000038FB1923002204212046FEF7CFFD28B10B
:102F100094F8360040F0200084F8360094F836002B
:102F200068B119212046FEF79AFD0028AED094F82A
:102F30003600042894F83600A4D19FE705E0206805
:102F4000016841F400410160D6E619212046FEF7F0
:102F500086FD48B194F83600042894F8360018D05D
:102F600040F0200084F836002068C661206841687F
:102F7000394041602068016821F4004101606585A5
:102F800084F8358094F8360030B12046FFF7BEF85B
:102F9000B2E640F00400E5E72046FFF74AFFABE663
:102FA000F8B5044616460F46DDE9062094F83510BC
:102FB0001D4601295BD18AB380B321688969C94361
:102FC000090454D594F83410012950D0012184F813
:102FD0003410622184F8351062626085FF2800D9C0
:102FE000FF202085216BFE488862216BFD48086325
:102FF0002168238D2431206BFDF743FE19200090BA
:103000002B46324639462046FFF797FC002538B15B
:1030100094F8360084F8345004281DD10120F8BDFE
:10302000208D4FF41051FF2807D1628D904204D2B9
:10303000FF224FF08073009103E0C2B24FF00073A3
:1030400000913946204600F094FA19230022042109
:103050002046FEF72BFD08B10320F8BD206801686B
:1030600041F40041016084F834500020F8BD022092
:10307000F8BD2DE9F84F00250446009590F835007D
:103080009A469346884601287FD120688069C043CC
:1030900000047AD594F83400012876D0012684F80B
:1030A0003460022084F8350084F836504FF020094F
:1030B000E068012809D028F4544040F420502168E9
:1030C0004860FDF70EFB074616E0C74948EA0100D5
:1030D000C6490840F3E700BFBAF1FF3F0CD0BAF190
:1030E000000F04D0FDF7FDFAC11B514504D984F847
:1030F000356084F834503FE020688169C94389060F
:1031000007D58069C043C00603D594F8350003286D
:10311000E2D1206880695346C043C0064FF00002E8
:103120004FF0200120460CD5FEF7C0FC20BB2168E3
:10313000C1F81C9084F8356084F834500020BDE854
:10314000F88FFEF7B3FCB8B921681020C861206879
:103150004F46C0F81C900098411C0091584510D172
:103160002068416841F4804141605346002220219B
:103170002046FEF79BFC10B10320E0E705E0206845
:10318000C7610099594593D3B1E70220D7E738B515
:10319000044690F83400012815D0012184F8341039
:1031A000206882694FF00005D24352070DD4416A6E
:1031B000606A421C62620170208D401E2085608D15
:1031C000401E608565E0022038BD8269D243120648
:1031D00023D4218DD1B9618DC1B14068C0F30901FB
:1031E000608D0095FF2807D94FF08073FF2220469D
:1031F00000F0BFF9FF2007E0608D4FF00073C2B20E
:10320000204600F0B6F9608D208542E084F8345005
:1032100094F8360040F0400036E08269D24352060E
:1032200007D4618D0029F1D1416841F480414160AA
:103230002FE08269D24392061AD4026822F0F40287
:10324000026022682020D06120684268684B1A40E2
:10325000426084F8351084F8345094F835006228C0
:10326000204602D0FFF773F813E0FFF7E2FD10E00D
:103270008169C943C9060CD41021C16184F8345056
:1032800094F8360040F0040084F836002046FEF73B
:103290003DFF84F83450002038BD38B5044690F81E
:1032A0003400012815D0012184F834102068826987
:1032B0004FF00005D24392070DD4616A4A1C626246
:1032C00009788162208D401E2085608D401E6085BA
:1032D00065E0022038BD8269D243120623D4218DD5
:1032E000D1B9618DC1B14068C0F30901608D00950D
:1032F000FF2807D94FF08073FF22204600F039F9EC
:10330000FF2007E0608D4FF00073C2B2204600F04E
:1033100030F9608D208542E084F8345094F836000E
:1033200040F0400036E08269D243520607D4618DF6
:103330000029F1D1416841F4804141602FE0826968
:10334000D24392061AD4026822F0F2020260226886
:103350002020D06120684268254B1A40426084F8E2
:10336000351084F8345094F835005228204602D0A5
:10337000FEF7E2FE13E0FFF746FC10E08169C94367
:10338000C9060CD41021C16184F8345094F8360079
:1033900040F0040084F836002046FEF7B7FE84F8BB
:1033A0003450002038BD10B5044600688169C94317
:1033B000890713D58169C94309060FD58169C943B6
:1033C00049060BD58169C943890607D58169C94377
:1033D000C90603D58169C943090715D4016809E005
:1033E000352E00080F21000800200002FF230002F4
:1033F00000E800FE7A20884306D194F83500322890
:1034000002D1204600F04EF920688169C94389073E
:103410000FD58169C94309060BD58169C94349069E
:1034200007D58169C943890603D58169C943C9069E
:103430000ED40168722088430AD194F8350012280E
:1034400003D094F83500522802D12046FFF725FF1B
:1034500020688169C943490713D58169C9430906B1
:103460000FD58169C94349060BD58169C9438906CE
:1034700007D58169C943C90603D58169C9430907CD
:103480000AD401687C20884306D194F8350042288C
:1034900002D1204600F0B4F820688169C943490789
:1034A0000FD58169C94309060BD58169C94349060E
:1034B00007D58169C943890603D58169C943C9060E
:1034C0000FD40168742088430BD194F8350022286A
:1034D00003D094F83500622803D12046BDE810409F
:1034E00055E610BD10B501688A69D243D2050CD4E7
:1034F0000A68D243120608D490F8362042F001023E
:1035000080F836204FF48072CA6101688A69D2431C
:1035100052050CD40A68D243120608D490F836201B
:1035200042F0080280F836204FF48062CA610168D8
:103530008A69D24392050CD40A68D243120608D491
:1035400090F8362042F0020280F836204FF40072E4
:10355000CA6190F83610002904D0012180F8351096
:10356000FEF7D4FD10BD90F83500704790F8360096
:10357000704770B50568049E6C6875480440C1F3D7
:10358000090040EA0240184330432043686070BDA0
:103590002DE9F04188460446FDF7A3F800250646CC
:1035A000012726E08069C043800610D421682020CE
:1035B000C86120684168674A1140416084F836500C
:1035C00084F8357084F834500120BDE8F081B8F1FA
:1035D000000F04D0FDF785F8811B414509D914F887
:1035E000360F40F0200004F80209677025700320B0
:1035F000EBE720688169C9434907D3D40020E4E799
:1036000070B5044690F83400012817D0012184F8E1
:103610003410206882694FF00005D243D2060FD4DF
:103620001021C16184F8345094F8360040F0040051
:1036300084F836002046FEF769FD2FE0022070BDB9
:103640008269D243120702D40821C16126E082694F
:10365000D24352070BD4416A606A421C6262017015
:10366000208D401E2085608D401E608516E0826999
:10367000D243920612D4026822F0FC020260206853
:10368000426842F40042426022682020D06184F8FF
:10369000351084F834502046FFF706F884F834508B
:1036A000002070BD70B5044690F83400012819D090
:1036B000012184F83410206882694FF00005D2435C
:1036C000D20614D4628D1021C1616AB194F836001B
:1036D00040F0040084F8360084F834502046FEF7A9
:1036E00015FD31E0022070BD84F834502CE0826971
:1036F000D243120702D40821C16125E08269D24376
:10370000920613D4026822F0FE020260206842682A
:1037100042F40042426022682020D06184F83510D3
:1037200084F834502046FEF725FF0DE08169C94337
:10373000890709D4618D39B1616A4A1C62620978CE
:103740008162608D401E608584F83450002070BD19
:10375000009800FC00E800FE30B5134C8BB0E06927
:1037600040F08050E06100F02DF808200090012525
:103770000020CDE90650684600F0AFF8206A20F43A
:10378000407040F400702062084805600BB030BD06
:10379000064910B50020086000F01EF80248C16913
:1037A00021F08051C16110BD001002403C04424232
:1037B0003A48016941F080510161016921F080516D
:1037C000016170470120010291FAA1F1344AB1FA76
:1037D00081F142F8210070474FF4807191FAA1F114
:1037E0002F4AB1FA81F1002042F8210070474FF4CE
:1037F000807191FAA1F1B1FA81F10844284908B524
:10380000803101EB8000009000990120086008BD24
:103810004FF4807292FAA2F2B2FA82F21044204A75
:1038200008B50021803202EB80000090016008BDE5
:103830001C4B1A6822F0030202431A601A480268FD
:1038400022F004020260012903D040BF20BF20BF44
:10385000704730BF7047134B1A6822F003020243CF
:103860001A601148026842F004020260012907D080
:1038700040BF20BF20BF016821F0040101607047F4
:1038800030BFF8E70748016841F0020101600648CF
:10389000016841F00401016030BF70470010024030
:1038A00000000E420070004010ED00E0FE4801688C
:1038B00041F0810101604168FC4A114041600168AA
:1038C000FB4A11400160016821F480210160002160
:1038D0004160C1620163816070472DE9F05F054678
:1038E0000078F14EC0074FF000084FF0010425D0DA
:1038F00070686704C0F38100012807D07068C0F3C6
:10390000810002281BD17068C00318D597FAA7F070
:10391000B0FA80F040F02000400901D0306800E0AB
:10392000706A97FAA7F1B1FA81F101F01F0104FA68
:1039300001F1084271D0686801287DD16DE086F8F8
:103940000280FCF7CEFE824641F2883906E000BFD5
:10395000FCF7C7FEA0EB0A0149456ED897FAA7F01D
:10396000B0FA80F040F02000400901D0306800E05B
:10397000706A97FAA7F1B1FA81F101F01F0104FA18
:1039800001F10842E4D12879B070F06AA96820F00A
:103990000F000843F0626868012803D0FCF7A1FE1D
:1039A000824625E0FCF79DFE824605E0FCF799FE85
:1039B000A0EB0A014945D0D897FAA7F0B0FA80F0F9
:1039C00040F02000400901D0306800E0706A97FAAA
:1039D000A7F1B1FA81F101F01F0104FA01F10842E7
:1039E000E4D01AE0FCF77DFEA0EB0A014945B4D80B
:1039F00097FAA7F0B0FA80F040F02000400901D01B
:103A0000306800E0706A97FAA7F1B1FA81F101F02D
:103A10001F0104FA01F10842E4D12878DFF89492FA
:103A200080074FF0020733D570684FF0F80B10F0A5
:103A30000C0F0AD0706801E099E033E1C0F3810017
:103A4000022826D17068C00323D497FAA7F0B0FAF1
:103A500080F040F02000400901D0306800E0706A3A
:103A600097FAA7F1B1FA81F101F01F0104FA01F10F
:103A7000084202D02869012879D13068696920F0AC
:103A8000F8029BFAABF0B0FA80F081400A43326052
:103A900051E0286968B3C9F80040FCF722FE82466D
:103AA00006E000BFFCF71DFEA0EB0A0064289ED8CC
:103AB00097FAA7F0B0FA80F040F02000400901D05A
:103AC000306800E0706A97FAA7F1B1FA81F101F06D
:103AD0001F0104FA01F10842E4D030689BFAABF20E
:103AE0006969B2FA82F220F0F80091400843306030
:103AF00021E0C9F80080FCF7F4FD824606E000BF33
:103B0000FCF7EFFDA0EB0A006428D0D897FAA7F0E5
:103B1000B0FA80F040F02000400901D0306800E0A9
:103B2000706A97FAA7F1B1FA81F101F01F0104FA66
:103B300001F10842E4D1287800075ED55E48A96902
:103B400069B30460FCF7CDFD824605E0FCF7C9FDD2
:103B5000A0EB0A006428AAD897FAA7F0B0FA80F080
:103B600040F06000B4EB501F02D130680CE07EE101
:103B700097FAA7F0B0FA80F040F06000B7EB501F62
:103B800001D1306A00E0706A97FAA7F1B1FA81F1C9
:103B900001F01F0104FA01F21042D7D02DE0C0F865
:103BA0000080FCF79EFD824606E000BFFCF799FD11
:103BB000A0EB0A00642875D897FAA7F0B0FA80F055
:103BC00040F06000B4EB501F01D130680BE097FA71
:103BD000A7F0B0FA80F040F06000B7EB501F01D1C1
:103BE000306A00E0706A97FAA7F1B1FA81F101F04A
:103BF0001F0104FA01F21042D8D12878400752D5AB
:103C0000F06940F08050F061DFF8B0B0DBF80010F0
:103C100041F48071CBF80010FCF763FD824605E0AB
:103C2000FCF75FFDA0EB0A0064283BD8DBF800003E
:103C3000C005F5D5306A20F005003062FCF751FD73
:103C4000834641F2883A05E0FCF74BFDA0EB0B01FF
:103C5000514527D897FAA7F0B0FA80F040F040001D
:103C6000B4EB501F01D130680BE097FAA7F0B0FA1F
:103C700080F040F04000B7EB501F01D1306A00E007
:103C8000706A97FAA7F1B1FA81F101F01F0104FA05
:103C900001F10842D8D1306AE96820F005000843F4
:103CA00030620DE09CE066E0001002400CC0FFF8BE
:103CB000FFFFF6FE000042428004424200700040D6
:103CC000E868012803D0FCF70CFD834632E0FCF7DE
:103CD00008FD834606E000BFFCF703FDA0EB0B01E7
:103CE00051457DD897FAA7F0B0FA80F040F0400037
:103CF000B4EB501F01D130680BE097FAA7F0B0FA8F
:103D000080F040F04000B7EB501F01D1306A00E076
:103D1000706A97FAA7F1B1FA81F101F01F0204FA73
:103D200002F10842D8D026E0FCF7DBFCA0EB0B0147
:103D3000514555D897FAA7F0B0FA80F040F040000E
:103D4000B4EB501F01D130680BE097FAA7F0B0FA3E
:103D500080F040F04000B7EB501F01D1306A00E026
:103D6000706A97FAA7F1B1FA81F101F01F0204FA23
:103D700002F10842D8D1E86998B37168C1F38101B2
:103D8000022975D04FF000770228C9F8608003D06F
:103D9000FCF7A7FC054653E0FCF7A3FC804605E0D2
:103DA000FCF79FFCA0EB0800642846D897FAA7F020
:103DB000B0FA80F040F02000400901D0306800E007
:103DC000706A97FAA7F1B1FA81F101F01F0104FAC4
:103DD00001F10842E4D1D5E908100843716801E017
:103DE0002BE042E021F4741108437060C9F8604090
:103DF000FCF777FC054604E0FCF773FC401B6428E5
:103E00001BD897FAA7F0B0FA80F040F020004009E4
:103E100001D0306800E0706A97FAA7F1B1FA81F139
:103E200001F01F0104FA01F10842E5D01DE000BFD6
:103E3000FCF757FC401B642802D90320BDE8F09F23
:103E400097FAA7F0B0FA80F040F02000400901D0C6
:103E5000306800E0706A97FAA7F1B1FA81F101F0D9
:103E60001F0104FA01F10842E2D10020E6E7FFE772
:103E70000120E3E72DE9F047DFF8F49305460E460D
:103E8000D9F80000022300F0070701204104420690
:103E9000F84C41F28838B74271D2D9F800C02CF002
:103EA000070C4CEA060CC9F800C0D9F8007007F0FE
:103EB0000707B7426FD12E78B60705D56668AF6899
:103EC00026F0F0063E4366602E78F60756D06E6800
:103ED000012E0BD0022E1ED093FAA3F1B1FA81F17C
:103EE00041F02001490924D0216823E091FAA1F290
:103EF000B2FA82F242F02002520901D0226800E0B8
:103F0000626A91FAA1F1B1FA81F101F01F018840D2
:103F1000024240D017E092FAA2F1B1FA81F141F0E9
:103F20002001490901D0216800E0616A92FAA2F2F9
:103F300002E0616A93FAA3F2B2FA82F202F01F027F
:103F40009040014227D0606820F003003043606059
:103F5000FCF7C7FB06466868012809D002284746D7
:103F600013D01EE0FCF7BDFB801BB84201D992E0E4
:103F700047466068C0F381000128F3D1A1E015E055
:103F8000FCF7AFFB801BB84273D86068C0F38100B8
:103F90000228F5D195E092E0FCF7A3FB801BB84224
:103FA00079D8606810F00C0FF6D18AE02F78BF073F
:103FB00007D56768D5F808C027F0F00747EA0C076F
:103FC00067602F78FF076DD06F68012F0BD0022F2D
:103FD0001ED093FAA3F1B1FA81F141F02001490911
:103FE00024D0216823E091FAA1F2B2FA82F242F0E1
:103FF0002002520901D0226800E0626A91FAA1F120
:10400000B1FA81F101F01F018840024257D017E058
:1040100092FAA2F1B1FA81F141F02001490901D0EF
:10402000216800E0616A92FAA2F202E0616A93FA02
:10403000A3F2B2FA82F202F01F02904001423ED097
:10404000606820F0030038436060FCF74AFB0746D5
:104050006868012807D0022811D01FE0FCF741FB57
:10406000C11B414517D86068C0F381000128F5D114
:1040700018E010E0FCF735FBC11B41450BD8606828
:10408000C0F381000228F5D10CE000BFFCF729FB4A
:10409000C11B414502D90320BDE8F087606810F0DC
:1040A0000C0FF3D1D9F8001021F007013143C9F802
:1040B0000010D9F8000000F00700B04201D0012044
:1040C000EAE72878400705D56068E96820F4E060F1
:1040D000084360602878000706D56068296920F4E5
:1040E000605040EAC10060600F20FCF7C4FA002075
:1040F000D2E730B55F4C85B00D46606940F40030C2
:104100006061A01500900220019003200390002020
:104110000290049069464FF09040FDF7B1FA606854
:1041200020F0E0602843606005B030BD52490120B6
:10413000C864704750490020C86470474D4B10B5A3
:104140005A684E4802F00C0104291DD008291BD1E1
:104150004FF4701494FAA4F402F47011B4FA84F4D5
:10416000E140474CDB6A615C0F2494FAA4F403F04D
:104170000F03B4FA84F4E340414C1034D203E35CFF
:1041800003D5B0FBF3F0484310BD3E48484310BD93
:1041900000B5FFF7D3FF37494968F02292FAA2F23F
:1041A00001F0F001B2FA82F2D140354A103A515C86
:1041B000C8403549086000BD00B5FFF7E9FF2D494B
:1041C00049684FF4E06292FAA2F201F4E061B2FAB7
:1041D00082F2D1402A4A103A515CC84000BD00B575
:1041E000FFF7D6FF234949684FF4605292FAA2F2D2
:1041F00001F46051B2FA82F2D140214A103A515C86
:10420000C84000BD70B50F2101601A490A684FF01F
:10421000050455034FF000034FF0010201D544603F
:1042200005E00D68ED0301D5426000E043600D68D4
:10423000ED0701D0026100E003610D68F82696FAEF
:10424000A6F605F0F805B6FA86F6F54045610D6A62
:104250006D0701D5C46005E00C6AE40701D0C260B7
:1042600000E0C3604C6AE40710D082610FE00000F8
:1042700000200240001002400000424200127A007A
:104280001A81000800093D00C000002083610B680E
:10429000DB0100D50222C2614A6802F48032026268
:1042A000496801F47011416270BD0F220260124A28
:1042B000536803F003034360536803F0F003836023
:1042C000536803F4E063C36052684FF4E06303EAA9
:1042D000D20202610948006800F0070008607047D8
:1042E000704710B5044CA068000603D5FFF7F8FF2F
:1042F0008020A07210BD000000100240002002408B
:1043000070B504460068C168490614D44FF0FF3107
:10431000C160FCF7E6F905464FF47A7607E000BF86
:10432000FCF7DFF9401BB04201D9032070BD2068C3
:10433000C0684006F4D5002070BD704770B5040019
:1043400002D0607F10B104E0012070BD2046FFF76D
:1043500003FA022060772168CA204862216853204E
:1043600048622046FFF7CCFFFF210028206803D0D9
:10437000416204206077E7E78268FE4B1A40826062
:104380002268906863681843D4E904352B431843C6
:1043900090602268E068106120680269238942EA1F
:1043A000034202612068C26822F08002C260206875
:1043B000026C22F4802202642068026CA3691A4312
:1043C00002642068416201206077002070BD704760
:1043D00070B504460068C16821F0A001C160FCF717
:1043E00080F905464FF47A7607E000BFFCF779F9CB
:1043F000401BB04201D9032070BD2068C068800610
:10440000F4D5002070BD2DE9F04704460220607706
:104410002168CA2048622168532048622046FFF77D
:104420006FFFFF264FF00408F0BB206800250560F1
:10443000216842F2011048602068816801F007019C
:104440008160FCF74EF907464FF47A790BE000BF24
:10445000FCF747F9C01B484505D920684662032090
:104460006077BDE8F0872068C0684007F0D5206815
:104470008168856021684FF6FF7048612168BE48F9
:1044800008612068C561206805622068C5622068EF
:10449000C56320684564206885642068C56020681D
:1044A00005642068806800E005E0800609D42046A5
:1044B000FFF78EFF28B12068466284F81D80012036
:1044C000CFE7206846622046FFF762F965772577D7
:1044D0000020C6E7010901EB810100F00F0000EBAD
:1044E0004100C0B27047002102E00A38C0B2491C46
:1044F0000A28FAD2090740EA116070472DE9F0470F
:104500000446007F0D46012811D04FF0010A84F8BF
:104510001CA0022060772068002680684FEA406077
:104520003AB1002819DA2878FFF7D4FF16E0022004
:1045300097E7002800DB2E722878FFF7D4FF0204EB
:104540006878FFF7D0FF42EA0022A878FFF7CBFF98
:104550000243287A42EA00470AE02E72A8782978B6
:1045600040EA01476878297A000240EA014007439F
:104570002168CA2048622168532048622046FFF71C
:10458000BFFE4FF0FF084FF00409E0B97B48074039
:10459000206807602068816821F480218160D5E966
:1045A0000301084321688A68104388602068C16855
:1045B00021F08001C1602068806880060BD420460D
:1045C000FFF706FF38B12168C1F8248084F81D90F8
:1045D0002677012045E72168C1F8248084F81DA0D2
:1045E000267700203DE710B50B460168896A5960BF
:1045F0000068016861480140C1F305401870C1F3CB
:1046000006245C7001F07F049C70402404EA114190
:10461000197252B9FFF75EFF18705878FFF75AFF0A
:1046200058709878FFF756FF9870002010BD2DE95C
:10463000F0470446007F0B46012825D04FF00109C2
:1046400084F81C90022060775878FAB1FFF742FF97
:104650009878FFF73FFF9878D97840EA0145587875
:104660001978000240EA413005432168CA204862B7
:104670002168532048622046FFF742FE0026FF27AC
:104680004FF0040850BB18E00220EAE6C10603D54B
:1046900000F0EF000A305870D878FFF724FF0204CA
:1046A0005878FFF720FF42EA00229878FFF71BFFB7
:1046B0000243187842EA4035D7E731480540206880
:1046C00045602068C16821F08001C1602068806871
:1046D00080060AD42046FFF77BFE30B1206847628F
:1046E00084F81D8026770120BBE62068476284F8A5
:1046F0001D9026770020B4E610B500680B4641688F
:104700001F480140080CD870C1F304245C7001F00C
:104710003F049C70C1F34231197052B9FFF7DAFEC1
:10472000D8705878FFF7D6FE58709878FFF7D2FE09
:104730009870002010BD2DE9F05F0446007F0B4605
:10474000012851D04FF0010A84F81CA002206077A4
:104750002068002680684FEA4060EAB3002860DAEB
:104760001878FFF7B7FE00BF93F82000FFF7B2FEFE
:10477000987807E0BFFF8FFFFF007F007F7F7F00FB
:104780003FFFFF0019781A7A40EA01405978090280
:1047900041EA0241084393F8201040EA0165D869D4
:1047A0005F68054358692168054398690743CA2033
:1047B0004862216853204862586A4FF0FF08B0F5FC
:1047C000807F20684FF47A7B81682CD021F40071BF
:1047D00081602068816800E009E021F40051816077
:1047E000FBF77FFF81464CE00220BDE8F09F0028E8
:1047F00000DB1E721878FFF776FE02045878FFF788
:1048000072FE42EA00229878FFF76DFE0243187AA2
:1048100042EA004293F82000FFF765FE42EA006595
:10482000BDE71E72A0E721F4807181602068816875
:1048300021F480518160FBF754FF814606E000BF00
:10484000FBF74FFFA0EB0900584513D82068C0685C
:10485000C007F5D02068C56120684764206881687A
:1048600041F4807119E000BFFBF73BFFA0EB0900AA
:10487000584506D92168C1F824800320607726773F
:10488000B3E72068C0688007EED52068056220681D
:1048900087642068816841F4007181602168C1F8F3
:1048A000248084F81DA0267700209EE72DE9F05F84
:1048B0000446007F0B46012848D04FF0010A84F8D7
:1048C0001CA0022060772068002680684FEA4060C4
:1048D000DAB3002856DA1878FFF7FCFD93F82000C9
:1048E000FFF7F8FD987819781A7A40EA014059786C
:1048F000090241EA0241084393F8201040EA0165A9
:10490000D8695F680543586921680543986907437A
:10491000CA204862216853204862586A4FF0FF0855
:10492000B0F5807F20684FF47A7B81682CD021F429
:10493000007181602068C16801F0800161F420711C
:10494000C160FBF7CEFE814651E001E002204CE75A
:10495000002800DB1E721878FFF7C5FD02045878A6
:10496000FFF7C1FD42EA00229878FFF7BCFD024341
:10497000187A42EA004293F82000FFF7B4FD42EAB9
:104980000065BDE71E72A9E721F48071816020688F
:10499000C16801F0800161F4C071C160FBF7A1FE44
:1049A000814605E0FBF79DFEA0EB0900584517D8AE
:1049B0002068C068C007F5D02068C56120684764DA
:1049C0002068816841F4807181602068816841F4C9
:1049D00080511DE0FBF785FEA0EB0900584506D984
:1049E0002168C1F82480032060772677FDE62068DF
:1049F000C0688007EED5206805622068876420685B
:104A0000816841F4007181602068816841F400513F
:104A100081607D48016841F4003101607A480830C6
:104A2000016841F4003101602168C1F8248084F8F4
:104A30001DA026770020D8E62DE9F0470446007F28
:104A4000012822D04FF0010884F81C8002206077F2
:104A50002268CA20506222685320506220680025D4
:104A6000FF26B1F5807F81684FF0030A4FF47A7911
:104A70000DD021F4007181602068816821F400511B
:104A80008160FBF72EFE074624E00220E9E421F4D2
:104A9000807181602068816821F480518160FBF71A
:104AA00020FE074605E000BFFBF71BFEC01B484584
:104AB00009D82068C068C007F6D00FE0FBF711FEE8
:104AC000C01B484506D92068466284F81DA025779A
:104AD0000320C6E42068C0688007EFD520684662DE
:104AE00084F81D8025770020BBE430B50C464FF4D8
:104AF00080718A4204D161620068C169406C05E03E
:104B00004FF4007161620068016A806CC1F3062590
:104B1000C0F30E02C1F305402070657001F07F05FF
:104B2000A570402505EA114525726260C1F3056252
:104B300084F8202001F0804201F08031E26161615F
:104B400083B9FFF7C7FC20706078FFF7C3FC607083
:104B5000A078FFF7BFFCA07094F82000FFF7BAFC24
:104B600084F82000002030BD704710B5044600686E
:104B7000C168C9050CD58068C00409D52046FFF777
:104B8000F3FF2068C16801F0800161F4C071C16069
:104B90002068C16889050CD58068800409D5204645
:104BA00000F0F8FC2068C16801F0800161F4207118
:104BB000C16015494FF4003014310860012060775E
:104BC00010BD70B50D460446FBF78BFD06460AE0A6
:104BD000681C08D025B1FBF784FD801BA84202D9D0
:104BE0000320607770BD2068C068C005F0D52068DC
:104BF000C16801F0800161F4C071C160012060777B
:104C0000002070BD407F70470004014030B5027F36
:104C1000012A1DD0012404770222427703689A6892
:104C200040F60805AA430A43CA2159620368532182
:104C3000596201688A6001688A6842F400628A6089
:104C40000268FF215162447700210177084630BD98
:104C5000022030BD30B5027F012A2DD00124047717
:104C60000222427703689A6840F60805AA430A437D
:104C7000CA21596203685321596201688A60016838
:104C80008A6842F400628A6001688A6842F40042DD
:104C90008A60FE490A6842F400220A60FB49083132
:104CA0000A6842F400220A600268FF2151624477D8
:104CB00000210177084630BD022030BD10B5017FCC
:104CC00001291CD001230377022141770268CA2100
:104CD000516202685321516201688A6822F40042DD
:104CE0008A600268916840F60804A14391600268F6
:104CF000FF215162437700210177084610BD022051
:104D000010BD70B5064600680C461546016BE04ABA
:104D1000406B11404FF63F721040C1F305422270C4
:104D2000C1F30622627001F07F02A270402202EA03
:104D3000114121723168896B61600021E970C0F313
:104D40000421697000F03F01A970C0F3423028705F
:104D5000BBB92078FFF7BEFB20706078FFF7BAFB85
:104D60006070A078FFF7B6FBA0706878FFF7B2FB21
:104D70006870A878FFF7AEFBA8702878FFF7AAFB49
:104D800028703068C16801F0800161F40861C16079
:104D9000002070BD70B5027F012A29D0012505775A
:104DA000022242774A6812B10A6852004A600A68D1
:104DB0004B6814461A43D1E9023633431A430B6950
:104DC0001A434B6989691A4342EA01034FF6847119
:104DD00041EA44010C4301680A6CA2430A64016879
:104DE0000A6C1A430A64457700210177084670BDB2
:104DF000022070BD70B5027F012A38D001240477EB
:104E0000022242774A6812B10A6852004A600A6870
:104E10004D6813462A43D1E9025635432A430D69AA
:104E20002A434D6989692A430A434FF6807141EA52
:104E300043010B4301680D6C9D430D6401680B6CCD
:104E400013430B6401680A6C42F004020A648F4940
:104E50000A6842F400220A608C4908310A6842F468
:104E600000220A60447700210177084670BD0220C5
:104E700070BD10B5027F012A0CD0012202770223F7
:104E8000437703681C6C8C431C64427700210177D4
:104E9000084610BD022010BD70477047704770472C
:104EA00010B504460068C16809050CD58068000487
:104EB00009D52046FFF7F3FF2068C16801F08001A3
:104EC00061F40861C1602068C16889040CD5006C78
:104ED000400709D52046FFF7E1FF2068C16801F0CF
:104EE000800161F40251C1602068C16849040CD599
:104EF000006C400709D52046FFF7CFFF2068C16846
:104F000001F0800161F48141C1602068C168090439
:104F10000DD5006C40070AD52046FFF7BDFF20687D
:104F2000C16801F08001A1F500418139C160574994
:104F30004FF40020143108600120607710BD70B577
:104F40000D460446FBF7CDFB064617E0C168C904D1
:104F500009D5C16801F0800161F48451C160042069
:104F60006077012070BD681C08D025B1FBF7B9FB44
:104F7000801BA84202D90320607770BD2068C168F9
:104F80000905E3D501206077002070BD70B50D469E
:104F90000446FBF7A6FB06460AE0681C08D025B1CC
:104FA000FBF79FFB801BA84202D90320607770BDEE
:104FB0002068C0688004F0D52068C16801F08001D5
:104FC00061F40251C16001206077002070BD70B5AE
:104FD0000D460446FBF785FB06460AE0681C08D030
:104FE00025B1FBF77EFB801BA84202D90320607726
:104FF00070BD2068C0684004F0D52068C16801F029
:10500000800161F48141C16001206077002070BDA2
:1050100070B50D460446FBF764FB06460AE0681CC3
:1050200008D025B1FBF75DFB801BA84202D9032005
:10503000607770BD2068C0680004F0D52068C16842
:1050400001F08001A1F500418139C1600120607744
:10505000002070BD2DE9F05F0446007F92468B462C
:1050600001281CD001262677022060772168CA20FB
:1050700048622168532048622068816821F4806179
:105080008160FBF72EFB0546002703E0000401408A
:105090007F7F7F004FF0FF084FF47A790EE0022007
:1050A000BDE8F09FFBF71DFB401B484506D9216872
:1050B000C1F82480032060772777F1E72068C06873
:1050C0004007EFD52068816821F0070181602068E2
:1050D000816841EA0A0181602168C1F814B0206842
:1050E000816841F4806181602168C1F8248066771D
:1050F00027770020D4E72DE9F05F0446007F934630
:105100008A46012817D00126267702206077216879
:10511000CA2048622168532048622068816821F4CF
:1051200080618160FBF7DDFA054600274FF0FF083C
:105130004FF47A790EE00220B2E700BFFBF7D1FA14
:10514000401B484506D92168C1F8248003206077B8
:105150002777A5E72068C0684007EFD52168C1F828
:1051600014A02068816821F00701816020688168AF
:1051700041EA0B018160F748016841F48011016048
:10518000F4480830016841F48011016020688168AA
:1051900041F4804181602068816841F480618160D0
:1051A0002168C1F8248066772777002078E72DE909
:1051B000F0470446007F01281CD0012626770220F4
:1051C00060772168CA2048622168532048622068BD
:1051D000816821F4806181602068816821F48041C8
:1051E0008160FBF77EFA054600274FF0FF084FF479
:1051F0007A790FE00220BDE8F08700BFFBF771FA73
:10520000401B484506D92168C1F8248003206077F7
:105210002777F0E72068C0684007EFD52168C1F81C
:105220002480667727770020E5E70068406980B230
:105230007047704710B504460068C16849050CD531
:105240008068400409D52046FFF7F3FF2068C16855
:1052500001F0800161F49061C160BE494FF480109B
:10526000143108600120607710BD70B50D4604460A
:10527000FBF737FA06460AE0681C08D025B1FBF7B1
:1052800030FA801BA84202D90320607770BD2068E5
:10529000C0684005F0D52068C16801F0800161F464
:1052A0009061C16001206077002070BD00685030BF
:1052B00040F8212070470068503050F821007047B6
:1052C0002DE9FF5F0446007F93468A46012817D0E8
:1052D00001262677022060772168CA20486221686B
:1052E000532048622068C0684FF00007C0034FF0A9
:1052F000FF0819D5FBF7F5F905464FF47A790FE069
:10530000022004B0CCE600BFFBF7EBF9401B484598
:1053100006D92168C1F82480032060772777F0E759
:105320002068C068C003EFD403994AEA0B00084321
:105330002168C8632168C1F8248066772777002038
:10534000DFE72DE9F05F0446007F92468B46012897
:1053500013D04FF0010884F81C8002206077206889
:10536000CA214162216853204862FBF7BAF900253F
:105370000746FF264FF47A790DE0022090E600BF41
:10538000FBF7AFF9C01B484505D9206846620320EA
:105390006077257784E62068C0680007F0D420682D
:1053A00081684FF00407C9060BD44AEA0B01C162B9
:1053B00020688068800609D42046FFF709F828B1E4
:1053C0002068466267772577012069E62068466293
:1053D00084F81D802577002062E610B5027F012A3F
:1053E0001FD001220277022343770468CA23636235
:1053F00004685323636203689C6824F400249C605F
:1054000003689C680C439C6001688B6843F400034C
:105410008B600368FF2159624277002101770846BB
:1054200010BD022010BD017F012916D00121017796
:10543000022242770368CA225A62036853225A62E0
:105440000268936823F4000393600368FF225A62A2
:10545000417700210177084670470220704770B5F8
:105460000446007F012819D00125257702206077A6
:105470002168CA2048622168532048622046FEF70E
:105480003FFF020022684FF000004FF0FF0107D0FD
:105490005162042161772077012070BD022070BD28
:1054A000936843F0100393602268D36823F080036D
:1054B000D3602268516265772077002070BD70B597
:1054C0000446007F012819D0012525770220607746
:1054D0002168CA2048622168532048622046FEF7AE
:1054E0000FFF020022684FF000004FF0FF0107D0CD
:1054F0005162042161772077012070BD022070BDC8
:10550000936823F0100393602268D36823F080032C
:10551000D3602268516265772077002070BD017FDB
:10552000012919D001210177022242770368CA229A
:105530005A62036853225A620268936843F0200358
:1055400093600368FF225A62417700210177084681
:1055500070470000000401400220F9E7017F0129A3
:1055600016D001210177022242770368CA225A62CB
:10557000036853225A620268936803F0DF03936062
:105580000368FF225A624177002101770846DFE76E
:105590000220DDE7DCE770B50D460446FBF7A1F815
:1055A00006460AE0681C08D025B1FBF79AF8801B74
:1055B000A84202D90320607770BD2068C0688005CA
:1055C000F0D52068C16801F0800161F42071C160EC
:1055D00001206077002070BD70472DE9F041040084
:1055E00010D0022584F85D50FFF7F6FF20680168AF
:1055F00021F040010160E0684FF4E066B04204D958
:10560000002104E00120BDE8F0814FF48051002228
:10561000B0F5706F02D0B04200D0A262276B0123B8
:1056200027B9B04201D9256300E02363D4E901051D
:105630002843D4E9045635432843258B05F40075E7
:105640002843E5692843256A2843A56A2843256835
:105650002860206B022804D12068056845F40065A5
:105660000560656B606AA66928430427E56807EA58
:105670001646354328430843216848602168E06A9C
:10568000086184F85E2084F85D300020BBE7704735
:1056900010B5040012D0022084F85D002068016873
:1056A00021F0400101602046FFF7F1FF002084F85F
:1056B0005E0084F85D0084F85C0010BD012010BD20
:1056C0002DE9F8431D4617460E460446FBF709F838
:1056D00080464FF4C0693AE04E4503D117B9007BCC
:1056E0008DF80000681C32D02DB1FAF7FAFFA0EB5C
:1056F0000800A8422BD92068416821F0E0014160F0
:105700006068B0F5827F0BD1A068B0F5004F02D081
:10571000B0F5806F04D12068016821F0400101607C
:10572000A06AB0F5005F09D12068016821F400513A
:1057300001602068016841F400510160012084F893
:105740005D00002084F85C000320BDE8F883206839
:1057500081683140B942BFD10020F6E72DE9F04120
:105760001D4616460F460446FAF7BBFF804633E057
:10577000681C31D02DB1FAF7B4FFA0EB0800A842A5
:105780002AD92068416821F0E00141606068B0F5E5
:10579000827F0BD1A068B0F5004F02D0B0F5806FCA
:1057A00004D12068016821F040010160A06AB0F5D1
:1057B000005F09D12068016821F400510160206870
:1057C000016841F400510160012084F85D0000206F
:1057D00084F85C00032016E7206880683840B042F7
:1057E000C6D100200FE770B50D460B4604460022D7
:1057F0004FF4C051FFF764FF78B92B460022802197
:105800002046FFF7ABFF40B92B4600224FF4C061A2
:105810002046FFF755FF002805D014F85E0F40F032
:1058200020002070032070BD2DE9F041044690F85F
:105830005D00984601282BD100297DD0002A7BD01D
:1058400094F85C00012823D0012684F85C600320D2
:1058500084F85D00002584F85E50A163A287E2878A
:105860002564A4F84450A4F84650A06A7703B842CF
:1058700009D12068016821F40051016020680168A5
:1058800041F400510160A068B0F5004F02D006E07D
:105890000220B8E62068016841F480410160206878
:1058A0000168490603D4016841F040010160E068E5
:1058B000B0F5E06F11D834E002224346114620468D
:1058C000FFF74CFFC8BBA06B21680088C860A06BC5
:1058D000801CA063E08F401EE087E08F0028EBD1A2
:1058E00022E001284FF002024346114620460CD028
:1058F000FFF734FF08BBA06B21680088C860A06B6D
:10590000801CA063E08F801E0AE0FFF727FFA0B98C
:10591000A06B411CA163216800780873E08F401ED2
:10592000E087E08F0028DCD1A06AB84207D1206868
:10593000016841F4805101E014E005E00160414656
:105940002046FFF750FF08B103205CE6A06810B9BD
:105950002068C168806884F85D6004F85C5FA078A6
:10596000002896D001204EE670B5044640680D46EA
:10597000B0F5827F0BD1A068B0F5004F02D0B0F532
:10598000806F04D12068016821F0400101602B463E
:10599000002280212046FFF7E1FE40B92B4600227D
:1059A0004FF4C0612046FFF78BFE002805D014F8A5
:1059B0005E0F40F020002070032070BD2DE9F84FED
:1059C00000260A9D1F4692468B460446ADF80060AD
:1059D00090F85D0001283ED1BBF1000F7ED0BAF1F6
:1059E000000FFBD0002FF9D0FAF77BFE814694F828
:1059F0005C0001282FD04FF0010884F85C8005205E
:105A000084F85D0084F85E60C4F840A0A4F8467095
:105A1000A4F84470C4F838B0E787A787A06A4FF4A9
:105A20000057B84209D12068016821F40051016093
:105A30002068016841F400510160E0684FF4E061C2
:105A4000884203D8B4F84600012807D92068426884
:105A500022F4805206E00220BDE8F88F20684268F8
:105A600042F48052426020680268520603D4026801
:105A700042F040020260E06888423BD895E0B8B14D
:105A800020688168890713D5A16B0988C160A06B64
:105A9000801CA063E08F401E0004000CE08707D14B
:105AA000A06AB84204D12068016841F480510160C5
:105AB000B4F8460070B120688168C9070AD0C06890
:105AC000216C0880206C801C2064B4F84600401EC5
:105AD000A4F84600681C0DD03DB100E0B9E0FAF72B
